{
  "contractName": "Lottery",
  "abi": [
    {
      "inputs": [],
      "stateMutability": "nonpayable",
      "type": "constructor"
    },
    {
      "inputs": [
        {
          "internalType": "uint256",
          "name": "",
          "type": "uint256"
        }
      ],
      "name": "lotteryHistory",
      "outputs": [
        {
          "internalType": "address payable",
          "name": "",
          "type": "address"
        }
      ],
      "stateMutability": "view",
      "type": "function"
    },
    {
      "inputs": [],
      "name": "lotteryId",
      "outputs": [
        {
          "internalType": "uint256",
          "name": "",
          "type": "uint256"
        }
      ],
      "stateMutability": "view",
      "type": "function"
    },
    {
      "inputs": [],
      "name": "owner",
      "outputs": [
        {
          "internalType": "address",
          "name": "",
          "type": "address"
        }
      ],
      "stateMutability": "view",
      "type": "function"
    },
    {
      "inputs": [
        {
          "internalType": "uint256",
          "name": "",
          "type": "uint256"
        }
      ],
      "name": "players",
      "outputs": [
        {
          "internalType": "address payable",
          "name": "",
          "type": "address"
        }
      ],
      "stateMutability": "view",
      "type": "function"
    },
    {
      "inputs": [],
      "name": "randomResult",
      "outputs": [
        {
          "internalType": "uint256",
          "name": "",
          "type": "uint256"
        }
      ],
      "stateMutability": "view",
      "type": "function"
    },
    {
      "inputs": [
        {
          "internalType": "bytes32",
          "name": "requestId",
          "type": "bytes32"
        },
        {
          "internalType": "uint256",
          "name": "randomness",
          "type": "uint256"
        }
      ],
      "name": "rawFulfillRandomness",
      "outputs": [],
      "stateMutability": "nonpayable",
      "type": "function"
    },
    {
      "inputs": [],
      "name": "getRandomNumber",
      "outputs": [
        {
          "internalType": "bytes32",
          "name": "requestId",
          "type": "bytes32"
        }
      ],
      "stateMutability": "nonpayable",
      "type": "function"
    },
    {
      "inputs": [
        {
          "internalType": "uint256",
          "name": "lottery",
          "type": "uint256"
        }
      ],
      "name": "getWinnerByLottery",
      "outputs": [
        {
          "internalType": "address payable",
          "name": "",
          "type": "address"
        }
      ],
      "stateMutability": "view",
      "type": "function"
    },
    {
      "inputs": [],
      "name": "getBalance",
      "outputs": [
        {
          "internalType": "uint256",
          "name": "",
          "type": "uint256"
        }
      ],
      "stateMutability": "view",
      "type": "function"
    },
    {
      "inputs": [],
      "name": "getPlayers",
      "outputs": [
        {
          "internalType": "address payable[]",
          "name": "",
          "type": "address[]"
        }
      ],
      "stateMutability": "view",
      "type": "function"
    },
    {
      "inputs": [],
      "name": "enter",
      "outputs": [],
      "stateMutability": "payable",
      "type": "function"
    },
    {
      "inputs": [],
      "name": "pickWinner",
      "outputs": [],
      "stateMutability": "nonpayable",
      "type": "function"
    },
    {
      "inputs": [],
      "name": "payWinner",
      "outputs": [],
      "stateMutability": "nonpayable",
      "type": "function"
    }
  ],
  "bytecode": "0x60c060405234801561001057600080fd5b5073b3dccb4cf7a26f6cf6b120cf5a73875b7bbc655b7301be23585060835e02b77ef475b0cc51aa1e07098173ffffffffffffffffffffffffffffffffffffffff1660a08173ffffffffffffffffffffffffffffffffffffffff16815250508073ffffffffffffffffffffffffffffffffffffffff1660808173ffffffffffffffffffffffffffffffffffffffff168152505050507f2ed0feb3e7fd2022120aa84fab1945545a9f2ffc9076fd6156fa96eaff4c131160001b60058190555067016345785d8a000060068190555033600160006101000a81548173ffffffffffffffffffffffffffffffffffffffff021916908373ffffffffffffffffffffffffffffffffffffffff160217905550600160038190555060805160a05161134061015a6000396000818161047a015261090501526000818161071101526108c901526113406000f3fe6080604052600436106100c25760003560e01c80638da5cb5b1161007f578063dbdff2c111610059578063dbdff2c114610244578063e580f47b1461026f578063e97dcb621461029a578063f71d96cb146102a4576100c2565b80638da5cb5b146101d957806394985ddd14610204578063be71248a1461022d576100c2565b806312065fe0146100c7578063281d098d146100f257806342619f661461012f5780635d495aea1461015a5780636d6fe230146101715780638b5b9ccc146101ae575b600080fd5b3480156100d357600080fd5b506100dc6102e1565b6040516100e99190610b44565b60405180910390f35b3480156100fe57600080fd5b5061011960048036038101906101149190610b90565b6102e9565b6040516101269190610bfe565b60405180910390f35b34801561013b57600080fd5b50610144610326565b6040516101519190610b44565b60405180910390f35b34801561016657600080fd5b5061016f61032c565b005b34801561017d57600080fd5b5061019860048036038101906101939190610b90565b610391565b6040516101a59190610bfe565b60405180910390f35b3480156101ba57600080fd5b506101c36103c4565b6040516101d09190610cd7565b60405180910390f35b3480156101e557600080fd5b506101ee610452565b6040516101fb9190610d1a565b60405180910390f35b34801561021057600080fd5b5061022b60048036038101906102269190610d6b565b610478565b005b34801561023957600080fd5b50610242610514565b005b34801561025057600080fd5b5061025961070a565b6040516102669190610dba565b60405180910390f35b34801561027b57600080fd5b506102846107fd565b6040516102919190610b44565b60405180910390f35b6102a2610803565b005b3480156102b057600080fd5b506102cb60048036038101906102c69190610b90565b61087b565b6040516102d89190610bfe565b60405180910390f35b600047905090565b60006004600083815260200190815260200160002060009054906101000a900473ffffffffffffffffffffffffffffffffffffffff169050919050565b60075481565b600160009054906101000a900473ffffffffffffffffffffffffffffffffffffffff1673ffffffffffffffffffffffffffffffffffffffff163373ffffffffffffffffffffffffffffffffffffffff161461038657600080fd5b61038e61070a565b50565b60046020528060005260406000206000915054906101000a900473ffffffffffffffffffffffffffffffffffffffff1681565b6060600280548060200260200160405190810160405280929190818152602001828054801561044857602002820191906000526020600020905b8160009054906101000a900473ffffffffffffffffffffffffffffffffffffffff1673ffffffffffffffffffffffffffffffffffffffff16815260200190600101908083116103fe575b5050505050905090565b600160009054906101000a900473ffffffffffffffffffffffffffffffffffffffff1681565b7f000000000000000000000000000000000000000000000000000000000000000073ffffffffffffffffffffffffffffffffffffffff163373ffffffffffffffffffffffffffffffffffffffff1614610506576040517f08c379a00000000000000000000000000000000000000000000000000000000081526004016104fd90610e32565b60405180910390fd5b61051082826108ba565b5050565b600060075411610559576040517f08c379a000000000000000000000000000000000000000000000000000000000815260040161055090610ec4565b60405180910390fd5b600060028054905060075461056e9190610f13565b90506002818154811061058457610583610f44565b5b9060005260206000200160009054906101000a900473ffffffffffffffffffffffffffffffffffffffff1673ffffffffffffffffffffffffffffffffffffffff166108fc479081150290604051600060405180830381858888f193505050501580156105f4573d6000803e3d6000fd5b506002818154811061060957610608610f44565b5b9060005260206000200160009054906101000a900473ffffffffffffffffffffffffffffffffffffffff1660046000600354815260200190815260200160002060006101000a81548173ffffffffffffffffffffffffffffffffffffffff021916908373ffffffffffffffffffffffffffffffffffffffff1602179055506003600081548092919061069a90610fa2565b9190505550600067ffffffffffffffff8111156106ba576106b9610fea565b5b6040519080825280602002602001820160405280156106e85781602001602082028036833780820191505090505b50600290805190602001906106fe929190610a84565b50600060078190555050565b60006006547f000000000000000000000000000000000000000000000000000000000000000073ffffffffffffffffffffffffffffffffffffffff166370a08231306040518263ffffffff1660e01b81526004016107689190610d1a565b602060405180830381865afa158015610785573d6000803e3d6000fd5b505050506040513d601f19601f820116820180604052508101906107a9919061102e565b10156107ea576040517f08c379a00000000000000000000000000000000000000000000000000000000081526004016107e1906110a7565b60405180910390fd5b6107f86005546006546108c5565b905090565b60035481565b662386f26fc10000341161081657600080fd5b6002339080600181540180825580915050600190039060005260206000200160009091909190916101000a81548173ffffffffffffffffffffffffffffffffffffffff021916908373ffffffffffffffffffffffffffffffffffffffff160217905550565b6002818154811061088b57600080fd5b906000526020600020016000915054906101000a900473ffffffffffffffffffffffffffffffffffffffff1681565b806007819055505050565b60007f000000000000000000000000000000000000000000000000000000000000000073ffffffffffffffffffffffffffffffffffffffff16634000aea07f0000000000000000000000000000000000000000000000000000000000000000848660006040516020016109399291906110c7565b6040516020818303038152906040526040518463ffffffff1660e01b815260040161096693929190611180565b6020604051808303816000875af1158015610985573d6000803e3d6000fd5b505050506040513d601f19601f820116820180604052508101906109a991906111f6565b5060006109cb8460003060008089815260200190815260200160002054610a15565b90506001600080868152602001908152602001600020546109ec9190611223565b60008086815260200190815260200160002081905550610a0c8482610a51565b91505092915050565b600084848484604051602001610a2e9493929190611257565b6040516020818303038152906040528051906020012060001c9050949350505050565b60008282604051602001610a669291906112de565b60405160208183030381529060405280519060200120905092915050565b828054828255906000526020600020908101928215610afd579160200282015b82811115610afc5782518260006101000a81548173ffffffffffffffffffffffffffffffffffffffff021916908373ffffffffffffffffffffffffffffffffffffffff16021790555091602001919060010190610aa4565b5b509050610b0a9190610b0e565b5090565b5b80821115610b27576000816000905550600101610b0f565b5090565b6000819050919050565b610b3e81610b2b565b82525050565b6000602082019050610b596000830184610b35565b92915050565b600080fd5b610b6d81610b2b565b8114610b7857600080fd5b50565b600081359050610b8a81610b64565b92915050565b600060208284031215610ba657610ba5610b5f565b5b6000610bb484828501610b7b565b91505092915050565b600073ffffffffffffffffffffffffffffffffffffffff82169050919050565b6000610be882610bbd565b9050919050565b610bf881610bdd565b82525050565b6000602082019050610c136000830184610bef565b92915050565b600081519050919050565b600082825260208201905092915050565b6000819050602082019050919050565b610c4e81610bdd565b82525050565b6000610c608383610c45565b60208301905092915050565b6000602082019050919050565b6000610c8482610c19565b610c8e8185610c24565b9350610c9983610c35565b8060005b83811015610cca578151610cb18882610c54565b9750610cbc83610c6c565b925050600181019050610c9d565b5085935050505092915050565b60006020820190508181036000830152610cf18184610c79565b905092915050565b6000610d0482610bbd565b9050919050565b610d1481610cf9565b82525050565b6000602082019050610d2f6000830184610d0b565b92915050565b6000819050919050565b610d4881610d35565b8114610d5357600080fd5b50565b600081359050610d6581610d3f565b92915050565b60008060408385031215610d8257610d81610b5f565b5b6000610d9085828601610d56565b9250506020610da185828601610b7b565b9150509250929050565b610db481610d35565b82525050565b6000602082019050610dcf6000830184610dab565b92915050565b600082825260208201905092915050565b7f4f6e6c7920565246436f6f7264696e61746f722063616e2066756c66696c6c00600082015250565b6000610e1c601f83610dd5565b9150610e2782610de6565b602082019050919050565b60006020820190508181036000830152610e4b81610e0f565b9050919050565b7f4d7573742068617665206120736f75726365206f662072616e646f6d6e65737360008201527f206265666f72652063686f6f73696e672077696e6e6572000000000000000000602082015250565b6000610eae603783610dd5565b9150610eb982610e52565b604082019050919050565b60006020820190508181036000830152610edd81610ea1565b9050919050565b7f4e487b7100000000000000000000000000000000000000000000000000000000600052601260045260246000fd5b6000610f1e82610b2b565b9150610f2983610b2b565b925082610f3957610f38610ee4565b5b828206905092915050565b7f4e487b7100000000000000000000000000000000000000000000000000000000600052603260045260246000fd5b7f4e487b7100000000000000000000000000000000000000000000000000000000600052601160045260246000fd5b6000610fad82610b2b565b91507fffffffffffffffffffffffffffffffffffffffffffffffffffffffffffffffff8203610fdf57610fde610f73565b5b600182019050919050565b7f4e487b7100000000000000000000000000000000000000000000000000000000600052604160045260246000fd5b60008151905061102881610b64565b92915050565b60006020828403121561104457611043610b5f565b5b600061105284828501611019565b91505092915050565b7f4e6f7420656e6f756768204c494e4b20696e20636f6e74726163740000000000600082015250565b6000611091601b83610dd5565b915061109c8261105b565b602082019050919050565b600060208201905081810360008301526110c081611084565b9050919050565b60006040820190506110dc6000830185610dab565b6110e96020830184610b35565b9392505050565b600081519050919050565b600082825260208201905092915050565b60005b8381101561112a57808201518184015260208101905061110f565b60008484015250505050565b6000601f19601f8301169050919050565b6000611152826110f0565b61115c81856110fb565b935061116c81856020860161110c565b61117581611136565b840191505092915050565b60006060820190506111956000830186610d0b565b6111a26020830185610b35565b81810360408301526111b48184611147565b9050949350505050565b60008115159050919050565b6111d3816111be565b81146111de57600080fd5b50565b6000815190506111f0816111ca565b92915050565b60006020828403121561120c5761120b610b5f565b5b600061121a848285016111e1565b91505092915050565b600061122e82610b2b565b915061123983610b2b565b925082820190508082111561125157611250610f73565b5b92915050565b600060808201905061126c6000830187610dab565b6112796020830186610b35565b6112866040830185610d0b565b6112936060830184610b35565b95945050505050565b6000819050919050565b6112b76112b282610d35565b61129c565b82525050565b6000819050919050565b6112d86112d382610b2b565b6112bd565b82525050565b60006112ea82856112a6565b6020820191506112fa82846112c7565b602082019150819050939250505056fea26469706673582212209511eb464354c648e29e427b41b46b0498ba648b6ebace7ebff6db2b0c4f7cb264736f6c63430008130033",
  "immutableReferences": {
    "73": [
      {
        "length": 32,
        "start": 1809
      },
      {
        "length": 32,
        "start": 2249
      }
    ],
    "75": [
      {
        "length": 32,
        "start": 1146
      },
      {
        "length": 32,
        "start": 2309
      }
    ]
  },
  "source": "// SPDX-License-Identifier: MIT\r\n\r\npragma solidity ^0.8.11;\r\n\r\nimport \"@chainlink/contracts/src/v0.8/VRFConsumerBase.sol\";\r\n\r\ncontract Lottery is VRFConsumerBase {\r\n    address public owner;\r\n    address payable[] public players;\r\n    uint public lotteryId;\r\n    mapping (uint => address payable) public lotteryHistory;\r\n\r\n    bytes32 internal keyHash; // identifies which Chainlink oracle to use\r\n    uint internal fee;        // fee to get random number\r\n    uint public randomResult;\r\n\r\n    constructor()\r\n        VRFConsumerBase(\r\n            0xb3dCcb4Cf7a26f6cf6B120Cf5A73875B7BBc655B, // VRF coordinator\r\n            0x01BE23585060835E02B77ef475b0Cc51aA1e0709  // LINK token address\r\n        ) {\r\n            keyHash = 0x2ed0feb3e7fd2022120aa84fab1945545a9f2ffc9076fd6156fa96eaff4c1311;\r\n            fee = 0.1 * 10 ** 18;    // 0.1 LINK\r\n\r\n            owner = msg.sender;\r\n            lotteryId = 1;\r\n        }\r\n\r\n    function getRandomNumber() public returns (bytes32 requestId) {\r\n        require(LINK.balanceOf(address(this)) >= fee, \"Not enough LINK in contract\");\r\n        return requestRandomness(keyHash, fee);\r\n    }\r\n\r\n    function fulfillRandomness(bytes32 requestId, uint randomness) internal override {\r\n        randomResult = randomness;\r\n    }\r\n\r\n    function getWinnerByLottery(uint lottery) public view returns (address payable) {\r\n        return lotteryHistory[lottery];\r\n    }\r\n\r\n    function getBalance() public view returns (uint) {\r\n        return address(this).balance;\r\n    }\r\n\r\n    function getPlayers() public view returns (address payable[] memory) {\r\n        return players;\r\n    }\r\n\r\n    function enter() public payable {\r\n        require(msg.value > .01 ether);\r\n\r\n        // address of player entering lottery\r\n        players.push(payable(msg.sender));\r\n    }\r\n\r\n    function pickWinner() public onlyowner {\r\n        getRandomNumber();\r\n    }\r\n\r\n    function payWinner() public {\r\n        require(randomResult > 0, \"Must have a source of randomness before choosing winner\");\r\n        uint index = randomResult % players.length;\r\n        players[index].transfer(address(this).balance);\r\n\r\n        lotteryHistory[lotteryId] = players[index];\r\n        lotteryId++;\r\n        \r\n        // reset the state of the contract\r\n        players = new address payable[](0);\r\n        randomResult = 0;\r\n    }\r\n\r\n    modifier onlyowner() {\r\n    require(msg.sender == owner);\r\n    _;\r\n    }\r\n}",
  "sourcePath": "D:\\IT\\SEM 8\\MiniProject\\lottery\\contracts\\Lottery.sol",
  "compiler": {
    "name": "solc",
    "version": "0.8.19+commit.7dd6d404.Emscripten.clang"
  },
  "schemaVersion": "3.4.13",
  "updatedAt": "2023-04-04T15:54:34.941Z",
  "devdoc": {
    "kind": "dev",
    "methods": {},
    "version": 1
  },
  "userdoc": {
    "kind": "user",
    "methods": {},
    "version": 1
  }
}